{
	"contracts/Paymaster.sol": {
		"Paymaster": {
			"abi": [
				{
					"inputs": [
						{
							"internalType": "address",
							"name": "_sponsor",
							"type": "address"
						}
					],
					"stateMutability": "nonpayable",
					"type": "constructor"
				},
				{
					"inputs": [],
					"name": "sponsor",
					"outputs": [
						{
							"internalType": "address",
							"name": "",
							"type": "address"
						}
					],
					"stateMutability": "view",
					"type": "function"
				},
				{
					"inputs": [
						{
							"components": [
								{
									"internalType": "address",
									"name": "sender",
									"type": "address"
								},
								{
									"internalType": "uint256",
									"name": "nonce",
									"type": "uint256"
								},
								{
									"internalType": "bytes",
									"name": "initCode",
									"type": "bytes"
								},
								{
									"internalType": "bytes",
									"name": "callData",
									"type": "bytes"
								},
								{
									"internalType": "uint256",
									"name": "callGasLimit",
									"type": "uint256"
								},
								{
									"internalType": "uint256",
									"name": "verificationGasLimit",
									"type": "uint256"
								},
								{
									"internalType": "uint256",
									"name": "preVerificationGas",
									"type": "uint256"
								},
								{
									"internalType": "uint256",
									"name": "maxFeePerGas",
									"type": "uint256"
								},
								{
									"internalType": "uint256",
									"name": "maxPriorityFeePerGas",
									"type": "uint256"
								},
								{
									"internalType": "bytes",
									"name": "paymasterAndData",
									"type": "bytes"
								},
								{
									"internalType": "bytes",
									"name": "signature",
									"type": "bytes"
								}
							],
							"internalType": "struct UserOperation",
							"name": "userOp",
							"type": "tuple"
						}
					],
					"name": "validatePaymasterUserOp",
					"outputs": [
						{
							"internalType": "bool",
							"name": "",
							"type": "bool"
						}
					],
					"stateMutability": "view",
					"type": "function"
				},
				{
					"stateMutability": "payable",
					"type": "receive"
				}
			],
			"devdoc": {
				"kind": "dev",
				"methods": {},
				"version": 1
			},
			"evm": {
				"assembly": "    /* \"contracts/Paymaster.sol\":89:1065  contract Paymaster {... */\n  mstore(0x40, 0x80)\n    /* \"contracts/Paymaster.sol\":229:294  constructor(address _sponsor) {... */\n  callvalue\n  dup1\n  iszero\n  tag_1\n  jumpi\n  revert(0x00, 0x00)\ntag_1:\n  pop\n  mload(0x40)\n  sub(codesize, bytecodeSize)\n  dup1\n  bytecodeSize\n  dup4\n  codecopy\n  dup2\n  dup2\n  add\n  0x40\n  mstore\n  dup2\n  add\n  swap1\n  tag_2\n  swap2\n  swap1\n  tag_3\n  jump\t// in\ntag_2:\n    /* \"contracts/Paymaster.sol\":279:287  _sponsor */\n  dup1\n    /* \"contracts/Paymaster.sol\":269:276  sponsor */\n  0x00\n  0x00\n    /* \"contracts/Paymaster.sol\":269:287  sponsor = _sponsor */\n  0x0100\n  exp\n  dup2\n  sload\n  dup2\n  0xffffffffffffffffffffffffffffffffffffffff\n  mul\n  not\n  and\n  swap1\n  dup4\n  0xffffffffffffffffffffffffffffffffffffffff\n  and\n  mul\n  or\n  swap1\n  sstore\n  pop\n    /* \"contracts/Paymaster.sol\":229:294  constructor(address _sponsor) {... */\n  pop\n    /* \"contracts/Paymaster.sol\":89:1065  contract Paymaster {... */\n  jump(tag_6)\n    /* \"#utility.yul\":88:205   */\ntag_8:\n    /* \"#utility.yul\":197:198   */\n  0x00\n    /* \"#utility.yul\":194:195   */\n  0x00\n    /* \"#utility.yul\":187:199   */\n  revert\n    /* \"#utility.yul\":334:460   */\ntag_10:\n    /* \"#utility.yul\":371:378   */\n  0x00\n    /* \"#utility.yul\":411:453   */\n  0xffffffffffffffffffffffffffffffffffffffff\n    /* \"#utility.yul\":404:409   */\n  dup3\n    /* \"#utility.yul\":400:454   */\n  and\n    /* \"#utility.yul\":389:454   */\n  swap1\n  pop\n    /* \"#utility.yul\":334:460   */\n  swap2\n  swap1\n  pop\n  jump\t// out\n    /* \"#utility.yul\":466:562   */\ntag_11:\n    /* \"#utility.yul\":503:510   */\n  0x00\n    /* \"#utility.yul\":532:556   */\n  tag_20\n    /* \"#utility.yul\":550:555   */\n  dup3\n    /* \"#utility.yul\":532:556   */\n  tag_10\n  jump\t// in\ntag_20:\n    /* \"#utility.yul\":521:556   */\n  swap1\n  pop\n    /* \"#utility.yul\":466:562   */\n  swap2\n  swap1\n  pop\n  jump\t// out\n    /* \"#utility.yul\":568:690   */\ntag_12:\n    /* \"#utility.yul\":641:665   */\n  tag_22\n    /* \"#utility.yul\":659:664   */\n  dup2\n    /* \"#utility.yul\":641:665   */\n  tag_11\n  jump\t// in\ntag_22:\n    /* \"#utility.yul\":634:639   */\n  dup2\n    /* \"#utility.yul\":631:666   */\n  eq\n    /* \"#utility.yul\":621:684   */\n  tag_23\n  jumpi\n    /* \"#utility.yul\":680:681   */\n  0x00\n    /* \"#utility.yul\":677:678   */\n  0x00\n    /* \"#utility.yul\":670:682   */\n  revert\n    /* \"#utility.yul\":621:684   */\ntag_23:\n    /* \"#utility.yul\":568:690   */\n  pop\n  jump\t// out\n    /* \"#utility.yul\":696:839   */\ntag_13:\n    /* \"#utility.yul\":753:758   */\n  0x00\n    /* \"#utility.yul\":784:790   */\n  dup2\n    /* \"#utility.yul\":778:791   */\n  mload\n    /* \"#utility.yul\":769:791   */\n  swap1\n  pop\n    /* \"#utility.yul\":800:833   */\n  tag_25\n    /* \"#utility.yul\":827:832   */\n  dup2\n    /* \"#utility.yul\":800:833   */\n  tag_12\n  jump\t// in\ntag_25:\n    /* \"#utility.yul\":696:839   */\n  swap3\n  swap2\n  pop\n  pop\n  jump\t// out\n    /* \"#utility.yul\":845:1196   */\ntag_3:\n    /* \"#utility.yul\":915:921   */\n  0x00\n    /* \"#utility.yul\":964:966   */\n  0x20\n    /* \"#utility.yul\":952:961   */\n  dup3\n    /* \"#utility.yul\":943:950   */\n  dup5\n    /* \"#utility.yul\":939:962   */\n  sub\n    /* \"#utility.yul\":935:967   */\n  slt\n    /* \"#utility.yul\":932:1051   */\n  iszero\n  tag_27\n  jumpi\n    /* \"#utility.yul\":970:1049   */\n  tag_28\n  tag_8\n  jump\t// in\ntag_28:\n    /* \"#utility.yul\":932:1051   */\ntag_27:\n    /* \"#utility.yul\":1090:1091   */\n  0x00\n    /* \"#utility.yul\":1115:1179   */\n  tag_29\n    /* \"#utility.yul\":1171:1178   */\n  dup5\n    /* \"#utility.yul\":1162:1168   */\n  dup3\n    /* \"#utility.yul\":1151:1160   */\n  dup6\n    /* \"#utility.yul\":1147:1169   */\n  add\n    /* \"#utility.yul\":1115:1179   */\n  tag_13\n  jump\t// in\ntag_29:\n    /* \"#utility.yul\":1105:1179   */\n  swap2\n  pop\n    /* \"#utility.yul\":1061:1189   */\n  pop\n    /* \"#utility.yul\":845:1196   */\n  swap3\n  swap2\n  pop\n  pop\n  jump\t// out\n    /* \"contracts/Paymaster.sol\":89:1065  contract Paymaster {... */\ntag_6:\n  dataSize(sub_0)\n  dup1\n  dataOffset(sub_0)\n  0x00\n  codecopy\n  0x00\n  return\nstop\n\nsub_0: assembly {\n        /* \"contracts/Paymaster.sol\":89:1065  contract Paymaster {... */\n      mstore(0x40, 0x80)\n      jumpi(tag_1, lt(calldatasize, 0x04))\n      shr(0xe0, calldataload(0x00))\n      dup1\n      0x03ac0fdf\n      eq\n      tag_3\n      jumpi\n      dup1\n      0x77c93662\n      eq\n      tag_4\n      jumpi\n      jump(tag_2)\n    tag_1:\n      jumpi(tag_2, calldatasize)\n      stop\n    tag_2:\n      revert(0x00, 0x00)\n        /* \"contracts/Paymaster.sol\":471:959  function validatePaymasterUserOp(UserOperation calldata userOp) external view returns (bool) {... */\n    tag_3:\n      callvalue\n      dup1\n      iszero\n      tag_7\n      jumpi\n      revert(0x00, 0x00)\n    tag_7:\n      pop\n      tag_8\n      0x04\n      dup1\n      calldatasize\n      sub\n      dup2\n      add\n      swap1\n      tag_9\n      swap2\n      swap1\n      tag_10\n      jump\t// in\n    tag_9:\n      tag_11\n      jump\t// in\n    tag_8:\n      mload(0x40)\n      tag_12\n      swap2\n      swap1\n      tag_13\n      jump\t// in\n    tag_12:\n      mload(0x40)\n      dup1\n      swap2\n      sub\n      swap1\n      return\n        /* \"contracts/Paymaster.sol\":137:159  address public sponsor */\n    tag_4:\n      callvalue\n      dup1\n      iszero\n      tag_14\n      jumpi\n      revert(0x00, 0x00)\n    tag_14:\n      pop\n      tag_15\n      tag_16\n      jump\t// in\n    tag_15:\n      mload(0x40)\n      tag_17\n      swap2\n      swap1\n      tag_18\n      jump\t// in\n    tag_17:\n      mload(0x40)\n      dup1\n      swap2\n      sub\n      swap1\n      return\n        /* \"contracts/Paymaster.sol\":471:959  function validatePaymasterUserOp(UserOperation calldata userOp) external view returns (bool) {... */\n    tag_11:\n        /* \"contracts/Paymaster.sol\":558:562  bool */\n      0x00\n        /* \"contracts/Paymaster.sol\":738:748  0.01 ether */\n      0x2386f26fc10000\n        /* \"contracts/Paymaster.sol\":714:735  address(this).balance */\n      selfbalance\n        /* \"contracts/Paymaster.sol\":714:748  address(this).balance > 0.01 ether */\n      gt\n        /* \"contracts/Paymaster.sol\":706:773  require(address(this).balance > 0.01 ether, \"Insufficient balance\") */\n      tag_20\n      jumpi\n      mload(0x40)\n      0x08c379a000000000000000000000000000000000000000000000000000000000\n      dup2\n      mstore\n      0x04\n      add\n      tag_21\n      swap1\n      tag_22\n      jump\t// in\n    tag_21:\n      mload(0x40)\n      dup1\n      swap2\n      sub\n      swap1\n      revert\n    tag_20:\n        /* \"contracts/Paymaster.sol\":944:952  100 gwei */\n      0x174876e800\n        /* \"contracts/Paymaster.sol\":922:928  userOp */\n      dup3\n        /* \"contracts/Paymaster.sol\":922:941  userOp.maxFeePerGas */\n      0xe0\n      add\n      calldataload\n        /* \"contracts/Paymaster.sol\":922:952  userOp.maxFeePerGas < 100 gwei */\n      lt\n        /* \"contracts/Paymaster.sol\":915:952  return userOp.maxFeePerGas < 100 gwei */\n      swap1\n      pop\n        /* \"contracts/Paymaster.sol\":471:959  function validatePaymasterUserOp(UserOperation calldata userOp) external view returns (bool) {... */\n      swap2\n      swap1\n      pop\n      jump\t// out\n        /* \"contracts/Paymaster.sol\":137:159  address public sponsor */\n    tag_16:\n      0x00\n      0x00\n      swap1\n      sload\n      swap1\n      0x0100\n      exp\n      swap1\n      div\n      0xffffffffffffffffffffffffffffffffffffffff\n      and\n      dup2\n      jump\t// out\n        /* \"#utility.yul\":88:205   */\n    tag_24:\n        /* \"#utility.yul\":197:198   */\n      0x00\n        /* \"#utility.yul\":194:195   */\n      0x00\n        /* \"#utility.yul\":187:199   */\n      revert\n        /* \"#utility.yul\":211:328   */\n    tag_25:\n        /* \"#utility.yul\":320:321   */\n      0x00\n        /* \"#utility.yul\":317:318   */\n      0x00\n        /* \"#utility.yul\":310:322   */\n      revert\n        /* \"#utility.yul\":334:451   */\n    tag_26:\n        /* \"#utility.yul\":443:444   */\n      0x00\n        /* \"#utility.yul\":440:441   */\n      0x00\n        /* \"#utility.yul\":433:445   */\n      revert\n        /* \"#utility.yul\":485:721   */\n    tag_27:\n        /* \"#utility.yul\":562:567   */\n      0x00\n        /* \"#utility.yul\":603:606   */\n      0x0160\n        /* \"#utility.yul\":594:600   */\n      dup3\n        /* \"#utility.yul\":589:592   */\n      dup5\n        /* \"#utility.yul\":585:601   */\n      sub\n        /* \"#utility.yul\":581:607   */\n      slt\n        /* \"#utility.yul\":578:691   */\n      iszero\n      tag_42\n      jumpi\n        /* \"#utility.yul\":610:689   */\n      tag_43\n      tag_26\n      jump\t// in\n    tag_43:\n        /* \"#utility.yul\":578:691   */\n    tag_42:\n        /* \"#utility.yul\":709:715   */\n      dup2\n        /* \"#utility.yul\":700:715   */\n      swap1\n      pop\n        /* \"#utility.yul\":485:721   */\n      swap3\n      swap2\n      pop\n      pop\n      jump\t// out\n        /* \"#utility.yul\":727:1278   */\n    tag_10:\n        /* \"#utility.yul\":817:823   */\n      0x00\n        /* \"#utility.yul\":866:868   */\n      0x20\n        /* \"#utility.yul\":854:863   */\n      dup3\n        /* \"#utility.yul\":845:852   */\n      dup5\n        /* \"#utility.yul\":841:864   */\n      sub\n        /* \"#utility.yul\":837:869   */\n      slt\n        /* \"#utility.yul\":834:953   */\n      iszero\n      tag_45\n      jumpi\n        /* \"#utility.yul\":872:951   */\n      tag_46\n      tag_24\n      jump\t// in\n    tag_46:\n        /* \"#utility.yul\":834:953   */\n    tag_45:\n        /* \"#utility.yul\":1020:1021   */\n      0x00\n        /* \"#utility.yul\":1009:1018   */\n      dup3\n        /* \"#utility.yul\":1005:1022   */\n      add\n        /* \"#utility.yul\":992:1023   */\n      calldataload\n        /* \"#utility.yul\":1050:1068   */\n      0xffffffffffffffff\n        /* \"#utility.yul\":1042:1048   */\n      dup2\n        /* \"#utility.yul\":1039:1069   */\n      gt\n        /* \"#utility.yul\":1036:1153   */\n      iszero\n      tag_47\n      jumpi\n        /* \"#utility.yul\":1072:1151   */\n      tag_48\n      tag_25\n      jump\t// in\n    tag_48:\n        /* \"#utility.yul\":1036:1153   */\n    tag_47:\n        /* \"#utility.yul\":1177:1261   */\n      tag_49\n        /* \"#utility.yul\":1253:1260   */\n      dup5\n        /* \"#utility.yul\":1244:1250   */\n      dup3\n        /* \"#utility.yul\":1233:1242   */\n      dup6\n        /* \"#utility.yul\":1229:1251   */\n      add\n        /* \"#utility.yul\":1177:1261   */\n      tag_27\n      jump\t// in\n    tag_49:\n        /* \"#utility.yul\":1167:1261   */\n      swap2\n      pop\n        /* \"#utility.yul\":963:1271   */\n      pop\n        /* \"#utility.yul\":727:1278   */\n      swap3\n      swap2\n      pop\n      pop\n      jump\t// out\n        /* \"#utility.yul\":1284:1374   */\n    tag_28:\n        /* \"#utility.yul\":1318:1325   */\n      0x00\n        /* \"#utility.yul\":1361:1366   */\n      dup2\n        /* \"#utility.yul\":1354:1367   */\n      iszero\n        /* \"#utility.yul\":1347:1368   */\n      iszero\n        /* \"#utility.yul\":1336:1368   */\n      swap1\n      pop\n        /* \"#utility.yul\":1284:1374   */\n      swap2\n      swap1\n      pop\n      jump\t// out\n        /* \"#utility.yul\":1380:1489   */\n    tag_29:\n        /* \"#utility.yul\":1461:1482   */\n      tag_52\n        /* \"#utility.yul\":1476:1481   */\n      dup2\n        /* \"#utility.yul\":1461:1482   */\n      tag_28\n      jump\t// in\n    tag_52:\n        /* \"#utility.yul\":1456:1459   */\n      dup3\n        /* \"#utility.yul\":1449:1483   */\n      mstore\n        /* \"#utility.yul\":1380:1489   */\n      pop\n      pop\n      jump\t// out\n        /* \"#utility.yul\":1495:1705   */\n    tag_13:\n        /* \"#utility.yul\":1582:1586   */\n      0x00\n        /* \"#utility.yul\":1620:1622   */\n      0x20\n        /* \"#utility.yul\":1609:1618   */\n      dup3\n        /* \"#utility.yul\":1605:1623   */\n      add\n        /* \"#utility.yul\":1597:1623   */\n      swap1\n      pop\n        /* \"#utility.yul\":1633:1698   */\n      tag_54\n        /* \"#utility.yul\":1695:1696   */\n      0x00\n        /* \"#utility.yul\":1684:1693   */\n      dup4\n        /* \"#utility.yul\":1680:1697   */\n      add\n        /* \"#utility.yul\":1671:1677   */\n      dup5\n        /* \"#utility.yul\":1633:1698   */\n      tag_29\n      jump\t// in\n    tag_54:\n        /* \"#utility.yul\":1495:1705   */\n      swap3\n      swap2\n      pop\n      pop\n      jump\t// out\n        /* \"#utility.yul\":1711:1837   */\n    tag_30:\n        /* \"#utility.yul\":1748:1755   */\n      0x00\n        /* \"#utility.yul\":1788:1830   */\n      0xffffffffffffffffffffffffffffffffffffffff\n        /* \"#utility.yul\":1781:1786   */\n      dup3\n        /* \"#utility.yul\":1777:1831   */\n      and\n        /* \"#utility.yul\":1766:1831   */\n      swap1\n      pop\n        /* \"#utility.yul\":1711:1837   */\n      swap2\n      swap1\n      pop\n      jump\t// out\n        /* \"#utility.yul\":1843:1939   */\n    tag_31:\n        /* \"#utility.yul\":1880:1887   */\n      0x00\n        /* \"#utility.yul\":1909:1933   */\n      tag_57\n        /* \"#utility.yul\":1927:1932   */\n      dup3\n        /* \"#utility.yul\":1909:1933   */\n      tag_30\n      jump\t// in\n    tag_57:\n        /* \"#utility.yul\":1898:1933   */\n      swap1\n      pop\n        /* \"#utility.yul\":1843:1939   */\n      swap2\n      swap1\n      pop\n      jump\t// out\n        /* \"#utility.yul\":1945:2063   */\n    tag_32:\n        /* \"#utility.yul\":2032:2056   */\n      tag_59\n        /* \"#utility.yul\":2050:2055   */\n      dup2\n        /* \"#utility.yul\":2032:2056   */\n      tag_31\n      jump\t// in\n    tag_59:\n        /* \"#utility.yul\":2027:2030   */\n      dup3\n        /* \"#utility.yul\":2020:2057   */\n      mstore\n        /* \"#utility.yul\":1945:2063   */\n      pop\n      pop\n      jump\t// out\n        /* \"#utility.yul\":2069:2291   */\n    tag_18:\n        /* \"#utility.yul\":2162:2166   */\n      0x00\n        /* \"#utility.yul\":2200:2202   */\n      0x20\n        /* \"#utility.yul\":2189:2198   */\n      dup3\n        /* \"#utility.yul\":2185:2203   */\n      add\n        /* \"#utility.yul\":2177:2203   */\n      swap1\n      pop\n        /* \"#utility.yul\":2213:2284   */\n      tag_61\n        /* \"#utility.yul\":2281:2282   */\n      0x00\n        /* \"#utility.yul\":2270:2279   */\n      dup4\n        /* \"#utility.yul\":2266:2283   */\n      add\n        /* \"#utility.yul\":2257:2263   */\n      dup5\n        /* \"#utility.yul\":2213:2284   */\n      tag_32\n      jump\t// in\n    tag_61:\n        /* \"#utility.yul\":2069:2291   */\n      swap3\n      swap2\n      pop\n      pop\n      jump\t// out\n        /* \"#utility.yul\":2297:2466   */\n    tag_33:\n        /* \"#utility.yul\":2381:2392   */\n      0x00\n        /* \"#utility.yul\":2415:2421   */\n      dup3\n        /* \"#utility.yul\":2410:2413   */\n      dup3\n        /* \"#utility.yul\":2403:2422   */\n      mstore\n        /* \"#utility.yul\":2455:2459   */\n      0x20\n        /* \"#utility.yul\":2450:2453   */\n      dup3\n        /* \"#utility.yul\":2446:2460   */\n      add\n        /* \"#utility.yul\":2431:2460   */\n      swap1\n      pop\n        /* \"#utility.yul\":2297:2466   */\n      swap3\n      swap2\n      pop\n      pop\n      jump\t// out\n        /* \"#utility.yul\":2472:2642   */\n    tag_34:\n        /* \"#utility.yul\":2612:2634   */\n      0x496e73756666696369656e742062616c616e6365000000000000000000000000\n        /* \"#utility.yul\":2608:2609   */\n      0x00\n        /* \"#utility.yul\":2600:2606   */\n      dup3\n        /* \"#utility.yul\":2596:2610   */\n      add\n        /* \"#utility.yul\":2589:2635   */\n      mstore\n        /* \"#utility.yul\":2472:2642   */\n      pop\n      jump\t// out\n        /* \"#utility.yul\":2648:3014   */\n    tag_35:\n        /* \"#utility.yul\":2790:2793   */\n      0x00\n        /* \"#utility.yul\":2811:2878   */\n      tag_65\n        /* \"#utility.yul\":2875:2877   */\n      0x14\n        /* \"#utility.yul\":2870:2873   */\n      dup4\n        /* \"#utility.yul\":2811:2878   */\n      tag_33\n      jump\t// in\n    tag_65:\n        /* \"#utility.yul\":2804:2878   */\n      swap2\n      pop\n        /* \"#utility.yul\":2887:2980   */\n      tag_66\n        /* \"#utility.yul\":2976:2979   */\n      dup3\n        /* \"#utility.yul\":2887:2980   */\n      tag_34\n      jump\t// in\n    tag_66:\n        /* \"#utility.yul\":3005:3007   */\n      0x20\n        /* \"#utility.yul\":3000:3003   */\n      dup3\n        /* \"#utility.yul\":2996:3008   */\n      add\n        /* \"#utility.yul\":2989:3008   */\n      swap1\n      pop\n        /* \"#utility.yul\":2648:3014   */\n      swap2\n      swap1\n      pop\n      jump\t// out\n        /* \"#utility.yul\":3020:3439   */\n    tag_22:\n        /* \"#utility.yul\":3186:3190   */\n      0x00\n        /* \"#utility.yul\":3224:3226   */\n      0x20\n        /* \"#utility.yul\":3213:3222   */\n      dup3\n        /* \"#utility.yul\":3209:3227   */\n      add\n        /* \"#utility.yul\":3201:3227   */\n      swap1\n      pop\n        /* \"#utility.yul\":3273:3282   */\n      dup2\n        /* \"#utility.yul\":3267:3271   */\n      dup2\n        /* \"#utility.yul\":3263:3283   */\n      sub\n        /* \"#utility.yul\":3259:3260   */\n      0x00\n        /* \"#utility.yul\":3248:3257   */\n      dup4\n        /* \"#utility.yul\":3244:3261   */\n      add\n        /* \"#utility.yul\":3237:3284   */\n      mstore\n        /* \"#utility.yul\":3301:3432   */\n      tag_68\n        /* \"#utility.yul\":3427:3431   */\n      dup2\n        /* \"#utility.yul\":3301:3432   */\n      tag_35\n      jump\t// in\n    tag_68:\n        /* \"#utility.yul\":3293:3432   */\n      swap1\n      pop\n        /* \"#utility.yul\":3020:3439   */\n      swap2\n      swap1\n      pop\n      jump\t// out\n\n    auxdata: 0xa264697066735822122081983d70634710d8234fb47cc8c4d7a1f364cc1eae8375e5b82fdd127ded4ef764736f6c634300081e0033\n}\n",
				"bytecode": {
					"linkReferences": {},
					"object": "608060405234801561000f575f5ffd5b506040516103d53803806103d5833981810160405281019061003191906100d4565b805f5f6101000a81548173ffffffffffffffffffffffffffffffffffffffff021916908373ffffffffffffffffffffffffffffffffffffffff160217905550506100ff565b5f5ffd5b5f73ffffffffffffffffffffffffffffffffffffffff82169050919050565b5f6100a38261007a565b9050919050565b6100b381610099565b81146100bd575f5ffd5b50565b5f815190506100ce816100aa565b92915050565b5f602082840312156100e9576100e8610076565b5b5f6100f6848285016100c0565b91505092915050565b6102c98061010c5f395ff3fe60806040526004361061002c575f3560e01c806303ac0fdf1461003757806377c936621461007357610033565b3661003357005b5f5ffd5b348015610042575f5ffd5b5061005d60048036038101906100589190610149565b61009d565b60405161006a91906101aa565b60405180910390f35b34801561007e575f5ffd5b506100876100fa565b6040516100949190610202565b60405180910390f35b5f662386f26fc1000047116100e7576040517f08c379a00000000000000000000000000000000000000000000000000000000081526004016100de90610275565b60405180910390fd5b64174876e8008260e00135109050919050565b5f5f9054906101000a900473ffffffffffffffffffffffffffffffffffffffff1681565b5f5ffd5b5f5ffd5b5f5ffd5b5f61016082840312156101405761013f610126565b5b81905092915050565b5f6020828403121561015e5761015d61011e565b5b5f82013567ffffffffffffffff81111561017b5761017a610122565b5b6101878482850161012a565b91505092915050565b5f8115159050919050565b6101a481610190565b82525050565b5f6020820190506101bd5f83018461019b565b92915050565b5f73ffffffffffffffffffffffffffffffffffffffff82169050919050565b5f6101ec826101c3565b9050919050565b6101fc816101e2565b82525050565b5f6020820190506102155f8301846101f3565b92915050565b5f82825260208201905092915050565b7f496e73756666696369656e742062616c616e63650000000000000000000000005f82015250565b5f61025f60148361021b565b915061026a8261022b565b602082019050919050565b5f6020820190508181035f83015261028c81610253565b905091905056fea264697066735822122081983d70634710d8234fb47cc8c4d7a1f364cc1eae8375e5b82fdd127ded4ef764736f6c634300081e0033",
					"opcodes": "PUSH1 0x80 PUSH1 0x40 MSTORE CALLVALUE DUP1 ISZERO PUSH2 0xF JUMPI PUSH0 PUSH0 REVERT JUMPDEST POP PUSH1 0x40 MLOAD PUSH2 0x3D5 CODESIZE SUB DUP1 PUSH2 0x3D5 DUP4 CODECOPY DUP2 DUP2 ADD PUSH1 0x40 MSTORE DUP2 ADD SWAP1 PUSH2 0x31 SWAP2 SWAP1 PUSH2 0xD4 JUMP JUMPDEST DUP1 PUSH0 PUSH0 PUSH2 0x100 EXP DUP2 SLOAD DUP2 PUSH20 0xFFFFFFFFFFFFFFFFFFFFFFFFFFFFFFFFFFFFFFFF MUL NOT AND SWAP1 DUP4 PUSH20 0xFFFFFFFFFFFFFFFFFFFFFFFFFFFFFFFFFFFFFFFF AND MUL OR SWAP1 SSTORE POP POP PUSH2 0xFF JUMP JUMPDEST PUSH0 PUSH0 REVERT JUMPDEST PUSH0 PUSH20 0xFFFFFFFFFFFFFFFFFFFFFFFFFFFFFFFFFFFFFFFF DUP3 AND SWAP1 POP SWAP2 SWAP1 POP JUMP JUMPDEST PUSH0 PUSH2 0xA3 DUP3 PUSH2 0x7A JUMP JUMPDEST SWAP1 POP SWAP2 SWAP1 POP JUMP JUMPDEST PUSH2 0xB3 DUP2 PUSH2 0x99 JUMP JUMPDEST DUP2 EQ PUSH2 0xBD JUMPI PUSH0 PUSH0 REVERT JUMPDEST POP JUMP JUMPDEST PUSH0 DUP2 MLOAD SWAP1 POP PUSH2 0xCE DUP2 PUSH2 0xAA JUMP JUMPDEST SWAP3 SWAP2 POP POP JUMP JUMPDEST PUSH0 PUSH1 0x20 DUP3 DUP5 SUB SLT ISZERO PUSH2 0xE9 JUMPI PUSH2 0xE8 PUSH2 0x76 JUMP JUMPDEST JUMPDEST PUSH0 PUSH2 0xF6 DUP5 DUP3 DUP6 ADD PUSH2 0xC0 JUMP JUMPDEST SWAP2 POP POP SWAP3 SWAP2 POP POP JUMP JUMPDEST PUSH2 0x2C9 DUP1 PUSH2 0x10C PUSH0 CODECOPY PUSH0 RETURN INVALID PUSH1 0x80 PUSH1 0x40 MSTORE PUSH1 0x4 CALLDATASIZE LT PUSH2 0x2C JUMPI PUSH0 CALLDATALOAD PUSH1 0xE0 SHR DUP1 PUSH4 0x3AC0FDF EQ PUSH2 0x37 JUMPI DUP1 PUSH4 0x77C93662 EQ PUSH2 0x73 JUMPI PUSH2 0x33 JUMP JUMPDEST CALLDATASIZE PUSH2 0x33 JUMPI STOP JUMPDEST PUSH0 PUSH0 REVERT JUMPDEST CALLVALUE DUP1 ISZERO PUSH2 0x42 JUMPI PUSH0 PUSH0 REVERT JUMPDEST POP PUSH2 0x5D PUSH1 0x4 DUP1 CALLDATASIZE SUB DUP2 ADD SWAP1 PUSH2 0x58 SWAP2 SWAP1 PUSH2 0x149 JUMP JUMPDEST PUSH2 0x9D JUMP JUMPDEST PUSH1 0x40 MLOAD PUSH2 0x6A SWAP2 SWAP1 PUSH2 0x1AA JUMP JUMPDEST PUSH1 0x40 MLOAD DUP1 SWAP2 SUB SWAP1 RETURN JUMPDEST CALLVALUE DUP1 ISZERO PUSH2 0x7E JUMPI PUSH0 PUSH0 REVERT JUMPDEST POP PUSH2 0x87 PUSH2 0xFA JUMP JUMPDEST PUSH1 0x40 MLOAD PUSH2 0x94 SWAP2 SWAP1 PUSH2 0x202 JUMP JUMPDEST PUSH1 0x40 MLOAD DUP1 SWAP2 SUB SWAP1 RETURN JUMPDEST PUSH0 PUSH7 0x2386F26FC10000 SELFBALANCE GT PUSH2 0xE7 JUMPI PUSH1 0x40 MLOAD PUSH32 0x8C379A000000000000000000000000000000000000000000000000000000000 DUP2 MSTORE PUSH1 0x4 ADD PUSH2 0xDE SWAP1 PUSH2 0x275 JUMP JUMPDEST PUSH1 0x40 MLOAD DUP1 SWAP2 SUB SWAP1 REVERT JUMPDEST PUSH5 0x174876E800 DUP3 PUSH1 0xE0 ADD CALLDATALOAD LT SWAP1 POP SWAP2 SWAP1 POP JUMP JUMPDEST PUSH0 PUSH0 SWAP1 SLOAD SWAP1 PUSH2 0x100 EXP SWAP1 DIV PUSH20 0xFFFFFFFFFFFFFFFFFFFFFFFFFFFFFFFFFFFFFFFF AND DUP2 JUMP JUMPDEST PUSH0 PUSH0 REVERT JUMPDEST PUSH0 PUSH0 REVERT JUMPDEST PUSH0 PUSH0 REVERT JUMPDEST PUSH0 PUSH2 0x160 DUP3 DUP5 SUB SLT ISZERO PUSH2 0x140 JUMPI PUSH2 0x13F PUSH2 0x126 JUMP JUMPDEST JUMPDEST DUP2 SWAP1 POP SWAP3 SWAP2 POP POP JUMP JUMPDEST PUSH0 PUSH1 0x20 DUP3 DUP5 SUB SLT ISZERO PUSH2 0x15E JUMPI PUSH2 0x15D PUSH2 0x11E JUMP JUMPDEST JUMPDEST PUSH0 DUP3 ADD CALLDATALOAD PUSH8 0xFFFFFFFFFFFFFFFF DUP2 GT ISZERO PUSH2 0x17B JUMPI PUSH2 0x17A PUSH2 0x122 JUMP JUMPDEST JUMPDEST PUSH2 0x187 DUP5 DUP3 DUP6 ADD PUSH2 0x12A JUMP JUMPDEST SWAP2 POP POP SWAP3 SWAP2 POP POP JUMP JUMPDEST PUSH0 DUP2 ISZERO ISZERO SWAP1 POP SWAP2 SWAP1 POP JUMP JUMPDEST PUSH2 0x1A4 DUP2 PUSH2 0x190 JUMP JUMPDEST DUP3 MSTORE POP POP JUMP JUMPDEST PUSH0 PUSH1 0x20 DUP3 ADD SWAP1 POP PUSH2 0x1BD PUSH0 DUP4 ADD DUP5 PUSH2 0x19B JUMP JUMPDEST SWAP3 SWAP2 POP POP JUMP JUMPDEST PUSH0 PUSH20 0xFFFFFFFFFFFFFFFFFFFFFFFFFFFFFFFFFFFFFFFF DUP3 AND SWAP1 POP SWAP2 SWAP1 POP JUMP JUMPDEST PUSH0 PUSH2 0x1EC DUP3 PUSH2 0x1C3 JUMP JUMPDEST SWAP1 POP SWAP2 SWAP1 POP JUMP JUMPDEST PUSH2 0x1FC DUP2 PUSH2 0x1E2 JUMP JUMPDEST DUP3 MSTORE POP POP JUMP JUMPDEST PUSH0 PUSH1 0x20 DUP3 ADD SWAP1 POP PUSH2 0x215 PUSH0 DUP4 ADD DUP5 PUSH2 0x1F3 JUMP JUMPDEST SWAP3 SWAP2 POP POP JUMP JUMPDEST PUSH0 DUP3 DUP3 MSTORE PUSH1 0x20 DUP3 ADD SWAP1 POP SWAP3 SWAP2 POP POP JUMP JUMPDEST PUSH32 0x496E73756666696369656E742062616C616E6365000000000000000000000000 PUSH0 DUP3 ADD MSTORE POP JUMP JUMPDEST PUSH0 PUSH2 0x25F PUSH1 0x14 DUP4 PUSH2 0x21B JUMP JUMPDEST SWAP2 POP PUSH2 0x26A DUP3 PUSH2 0x22B JUMP JUMPDEST PUSH1 0x20 DUP3 ADD SWAP1 POP SWAP2 SWAP1 POP JUMP JUMPDEST PUSH0 PUSH1 0x20 DUP3 ADD SWAP1 POP DUP2 DUP2 SUB PUSH0 DUP4 ADD MSTORE PUSH2 0x28C DUP2 PUSH2 0x253 JUMP JUMPDEST SWAP1 POP SWAP2 SWAP1 POP JUMP INVALID LOG2 PUSH5 0x6970667358 0x22 SLT KECCAK256 DUP2 SWAP9 RETURNDATASIZE PUSH17 0x634710D8234FB47CC8C4D7A1F364CC1EAE DUP4 PUSH22 0xE5B82FDD127DED4EF764736F6C634300081E00330000 "
				},
				"gasEstimates": {
					"creation": {
						"codeDepositCost": "142600",
						"executionCost": "infinite",
						"totalCost": "infinite"
					},
					"external": {
						"sponsor()": "2507",
						"validatePaymasterUserOp((address,uint256,bytes,bytes,uint256,uint256,uint256,uint256,uint256,bytes,bytes))": "658"
					}
				},
				"methodIdentifiers": {
					"sponsor()": "77c93662",
					"validatePaymasterUserOp((address,uint256,bytes,bytes,uint256,uint256,uint256,uint256,uint256,bytes,bytes))": "03ac0fdf"
				}
			},
			"storageLayout": {
				"storage": [
					{
						"astId": 4,
						"contract": "contracts/Paymaster.sol:Paymaster",
						"label": "sponsor",
						"offset": 0,
						"slot": "0",
						"type": "t_address"
					}
				],
				"types": {
					"t_address": {
						"encoding": "inplace",
						"label": "address",
						"numberOfBytes": "20"
					}
				}
			},
			"userdoc": {
				"kind": "user",
				"methods": {},
				"version": 1
			}
		}
	}
}