{
	"data": {
		"bytecode": {
			"linkReferences": {},
			"object": "608060405234801561000f575f5ffd5b50604051610dc1380380610dc1833981810160405281019061003191906100d4565b805f5f6101000a81548173ffffffffffffffffffffffffffffffffffffffff021916908373ffffffffffffffffffffffffffffffffffffffff160217905550506100ff565b5f5ffd5b5f73ffffffffffffffffffffffffffffffffffffffff82169050919050565b5f6100a38261007a565b9050919050565b6100b381610099565b81146100bd575f5ffd5b50565b5f815190506100ce816100aa565b92915050565b5f602082840312156100e9576100e8610076565b5b5f6100f6848285016100c0565b91505092915050565b610cb58061010c5f395ff3fe608060405260043610610037575f3560e01c806318dfb3c7146100425780638da5cb5b1461006a578063b61d27f6146100945761003e565b3661003e57005b5f5ffd5b34801561004d575f5ffd5b506100686004803603810190610063919061062a565b6100bc565b005b348015610075575f5ffd5b5061007e61037e565b60405161008b91906106e7565b60405180910390f35b34801561009f575f5ffd5b506100ba60048036038101906100b591906107b2565b6103a2565b005b5f5f9054906101000a900473ffffffffffffffffffffffffffffffffffffffff1673ffffffffffffffffffffffffffffffffffffffff163373ffffffffffffffffffffffffffffffffffffffff161461014a576040517f08c379a00000000000000000000000000000000000000000000000000000000081526004016101419061087d565b60405180910390fd5b818190508484905014610192576040517f08c379a0000000000000000000000000000000000000000000000000000000008152600401610189906108e5565b60405180910390fd5b5f5a90505f5f90505b8585905081101561032f575f8686838181106101ba576101b9610903565b5b90506020020160208101906101cf9190610930565b73ffffffffffffffffffffffffffffffffffffffff168585848181106101f8576101f7610903565b5b905060200281019061020a9190610967565b604051610218929190610a05565b5f604051808303815f865af19150503d805f8114610251576040519150601f19603f3d011682016040523d82523d5f602084013e610256565b606091505b505090508061029a576040517f08c379a000000000000000000000000000000000000000000000000000000000815260040161029190610a67565b60405180910390fd5b7fcaf938de11c367272220bfd1d2baa99ca46665e7bc4d85f00adb51b90fe1fa9f8787848181106102ce576102cd610903565b5b90506020020160208101906102e39190610930565b5f8787868181106102f7576102f6610903565b5b90506020028101906103099190610967565b6040516103199493929190610b13565b60405180910390a150808060010191505061019b565b505f5a8261033d9190610b7e565b90507f275c82ca4f491f0c9b7ffa4f6e3e85613c4a0d2c4f67b64995dc68806f0586e58160405161036e9190610bc0565b60405180910390a1505050505050565b5f5f9054906101000a900473ffffffffffffffffffffffffffffffffffffffff1681565b5f5f9054906101000a900473ffffffffffffffffffffffffffffffffffffffff1673ffffffffffffffffffffffffffffffffffffffff163373ffffffffffffffffffffffffffffffffffffffff1614610430576040517f08c379a00000000000000000000000000000000000000000000000000000000081526004016104279061087d565b60405180910390fd5b5f5a90505f8573ffffffffffffffffffffffffffffffffffffffff1685858560405161045d929190610a05565b5f6040518083038185875af1925050503d805f8114610497576040519150601f19603f3d011682016040523d82523d5f602084013e61049c565b606091505b50509050806104e0576040517f08c379a00000000000000000000000000000000000000000000000000000000081526004016104d790610c23565b60405180910390fd5b5f5a836104ed9190610b7e565b90507f275c82ca4f491f0c9b7ffa4f6e3e85613c4a0d2c4f67b64995dc68806f0586e58160405161051e9190610bc0565b60405180910390a17fcaf938de11c367272220bfd1d2baa99ca46665e7bc4d85f00adb51b90fe1fa9f8787878760405161055b9493929190610c41565b60405180910390a150505050505050565b5f5ffd5b5f5ffd5b5f5ffd5b5f5ffd5b5f5ffd5b5f5f83601f84011261059557610594610574565b5b8235905067ffffffffffffffff8111156105b2576105b1610578565b5b6020830191508360208202830111156105ce576105cd61057c565b5b9250929050565b5f5f83601f8401126105ea576105e9610574565b5b8235905067ffffffffffffffff81111561060757610606610578565b5b6020830191508360208202830111156106235761062261057c565b5b9250929050565b5f5f5f5f604085870312156106425761064161056c565b5b5f85013567ffffffffffffffff81111561065f5761065e610570565b5b61066b87828801610580565b9450945050602085013567ffffffffffffffff81111561068e5761068d610570565b5b61069a878288016105d5565b925092505092959194509250565b5f73ffffffffffffffffffffffffffffffffffffffff82169050919050565b5f6106d1826106a8565b9050919050565b6106e1816106c7565b82525050565b5f6020820190506106fa5f8301846106d8565b92915050565b610709816106c7565b8114610713575f5ffd5b50565b5f8135905061072481610700565b92915050565b5f819050919050565b61073c8161072a565b8114610746575f5ffd5b50565b5f8135905061075781610733565b92915050565b5f5f83601f84011261077257610771610574565b5b8235905067ffffffffffffffff81111561078f5761078e610578565b5b6020830191508360018202830111156107ab576107aa61057c565b5b9250929050565b5f5f5f5f606085870312156107ca576107c961056c565b5b5f6107d787828801610716565b94505060206107e887828801610749565b935050604085013567ffffffffffffffff81111561080957610808610570565b5b6108158782880161075d565b925092505092959194509250565b5f82825260208201905092915050565b7f4e6f74206f776e657200000000000000000000000000000000000000000000005f82015250565b5f610867600983610823565b915061087282610833565b602082019050919050565b5f6020820190508181035f8301526108948161085b565b9050919050565b7f4c656e677468206d69736d6174636800000000000000000000000000000000005f82015250565b5f6108cf600f83610823565b91506108da8261089b565b602082019050919050565b5f6020820190508181035f8301526108fc816108c3565b9050919050565b7f4e487b71000000000000000000000000000000000000000000000000000000005f52603260045260245ffd5b5f602082840312156109455761094461056c565b5b5f61095284828501610716565b91505092915050565b5f5ffd5b5f5ffd5b5f5ffd5b5f5f833560016020038436030381126109835761098261095b565b5b80840192508235915067ffffffffffffffff8211156109a5576109a461095f565b5b6020830192506001820236038313156109c1576109c0610963565b5b509250929050565b5f81905092915050565b828183375f83830152505050565b5f6109ec83856109c9565b93506109f98385846109d3565b82840190509392505050565b5f610a118284866109e1565b91508190509392505050565b7f4261746368207478206661696c656400000000000000000000000000000000005f82015250565b5f610a51600f83610823565b9150610a5c82610a1d565b602082019050919050565b5f6020820190508181035f830152610a7e81610a45565b9050919050565b5f819050919050565b5f819050919050565b5f610ab1610aac610aa784610a85565b610a8e565b61072a565b9050919050565b610ac181610a97565b82525050565b5f82825260208201905092915050565b5f601f19601f8301169050919050565b5f610af28385610ac7565b9350610aff8385846109d3565b610b0883610ad7565b840190509392505050565b5f606082019050610b265f8301876106d8565b610b336020830186610ab8565b8181036040830152610b46818486610ae7565b905095945050505050565b7f4e487b71000000000000000000000000000000000000000000000000000000005f52601160045260245ffd5b5f610b888261072a565b9150610b938361072a565b9250828203905081811115610bab57610baa610b51565b5b92915050565b610bba8161072a565b82525050565b5f602082019050610bd35f830184610bb1565b92915050565b7f457865637574696f6e206661696c6564000000000000000000000000000000005f82015250565b5f610c0d601083610823565b9150610c1882610bd9565b602082019050919050565b5f6020820190508181035f830152610c3a81610c01565b9050919050565b5f606082019050610c545f8301876106d8565b610c616020830186610bb1565b8181036040830152610c74818486610ae7565b90509594505050505056fea2646970667358221220502b842ba083437ec5a892b65ea76af550e529854ef8f6740a64deec0216998d64736f6c634300081e0033",
			"opcodes": "PUSH1 0x80 PUSH1 0x40 MSTORE CALLVALUE DUP1 ISZERO PUSH2 0xF JUMPI PUSH0 PUSH0 REVERT JUMPDEST POP PUSH1 0x40 MLOAD PUSH2 0xDC1 CODESIZE SUB DUP1 PUSH2 0xDC1 DUP4 CODECOPY DUP2 DUP2 ADD PUSH1 0x40 MSTORE DUP2 ADD SWAP1 PUSH2 0x31 SWAP2 SWAP1 PUSH2 0xD4 JUMP JUMPDEST DUP1 PUSH0 PUSH0 PUSH2 0x100 EXP DUP2 SLOAD DUP2 PUSH20 0xFFFFFFFFFFFFFFFFFFFFFFFFFFFFFFFFFFFFFFFF MUL NOT AND SWAP1 DUP4 PUSH20 0xFFFFFFFFFFFFFFFFFFFFFFFFFFFFFFFFFFFFFFFF AND MUL OR SWAP1 SSTORE POP POP PUSH2 0xFF JUMP JUMPDEST PUSH0 PUSH0 REVERT JUMPDEST PUSH0 PUSH20 0xFFFFFFFFFFFFFFFFFFFFFFFFFFFFFFFFFFFFFFFF DUP3 AND SWAP1 POP SWAP2 SWAP1 POP JUMP JUMPDEST PUSH0 PUSH2 0xA3 DUP3 PUSH2 0x7A JUMP JUMPDEST SWAP1 POP SWAP2 SWAP1 POP JUMP JUMPDEST PUSH2 0xB3 DUP2 PUSH2 0x99 JUMP JUMPDEST DUP2 EQ PUSH2 0xBD JUMPI PUSH0 PUSH0 REVERT JUMPDEST POP JUMP JUMPDEST PUSH0 DUP2 MLOAD SWAP1 POP PUSH2 0xCE DUP2 PUSH2 0xAA JUMP JUMPDEST SWAP3 SWAP2 POP POP JUMP JUMPDEST PUSH0 PUSH1 0x20 DUP3 DUP5 SUB SLT ISZERO PUSH2 0xE9 JUMPI PUSH2 0xE8 PUSH2 0x76 JUMP JUMPDEST JUMPDEST PUSH0 PUSH2 0xF6 DUP5 DUP3 DUP6 ADD PUSH2 0xC0 JUMP JUMPDEST SWAP2 POP POP SWAP3 SWAP2 POP POP JUMP JUMPDEST PUSH2 0xCB5 DUP1 PUSH2 0x10C PUSH0 CODECOPY PUSH0 RETURN INVALID PUSH1 0x80 PUSH1 0x40 MSTORE PUSH1 0x4 CALLDATASIZE LT PUSH2 0x37 JUMPI PUSH0 CALLDATALOAD PUSH1 0xE0 SHR DUP1 PUSH4 0x18DFB3C7 EQ PUSH2 0x42 JUMPI DUP1 PUSH4 0x8DA5CB5B EQ PUSH2 0x6A JUMPI DUP1 PUSH4 0xB61D27F6 EQ PUSH2 0x94 JUMPI PUSH2 0x3E JUMP JUMPDEST CALLDATASIZE PUSH2 0x3E JUMPI STOP JUMPDEST PUSH0 PUSH0 REVERT JUMPDEST CALLVALUE DUP1 ISZERO PUSH2 0x4D JUMPI PUSH0 PUSH0 REVERT JUMPDEST POP PUSH2 0x68 PUSH1 0x4 DUP1 CALLDATASIZE SUB DUP2 ADD SWAP1 PUSH2 0x63 SWAP2 SWAP1 PUSH2 0x62A JUMP JUMPDEST PUSH2 0xBC JUMP JUMPDEST STOP JUMPDEST CALLVALUE DUP1 ISZERO PUSH2 0x75 JUMPI PUSH0 PUSH0 REVERT JUMPDEST POP PUSH2 0x7E PUSH2 0x37E JUMP JUMPDEST PUSH1 0x40 MLOAD PUSH2 0x8B SWAP2 SWAP1 PUSH2 0x6E7 JUMP JUMPDEST PUSH1 0x40 MLOAD DUP1 SWAP2 SUB SWAP1 RETURN JUMPDEST CALLVALUE DUP1 ISZERO PUSH2 0x9F JUMPI PUSH0 PUSH0 REVERT JUMPDEST POP PUSH2 0xBA PUSH1 0x4 DUP1 CALLDATASIZE SUB DUP2 ADD SWAP1 PUSH2 0xB5 SWAP2 SWAP1 PUSH2 0x7B2 JUMP JUMPDEST PUSH2 0x3A2 JUMP JUMPDEST STOP JUMPDEST PUSH0 PUSH0 SWAP1 SLOAD SWAP1 PUSH2 0x100 EXP SWAP1 DIV PUSH20 0xFFFFFFFFFFFFFFFFFFFFFFFFFFFFFFFFFFFFFFFF AND PUSH20 0xFFFFFFFFFFFFFFFFFFFFFFFFFFFFFFFFFFFFFFFF AND CALLER PUSH20 0xFFFFFFFFFFFFFFFFFFFFFFFFFFFFFFFFFFFFFFFF AND EQ PUSH2 0x14A JUMPI PUSH1 0x40 MLOAD PUSH32 0x8C379A000000000000000000000000000000000000000000000000000000000 DUP2 MSTORE PUSH1 0x4 ADD PUSH2 0x141 SWAP1 PUSH2 0x87D JUMP JUMPDEST PUSH1 0x40 MLOAD DUP1 SWAP2 SUB SWAP1 REVERT JUMPDEST DUP2 DUP2 SWAP1 POP DUP5 DUP5 SWAP1 POP EQ PUSH2 0x192 JUMPI PUSH1 0x40 MLOAD PUSH32 0x8C379A000000000000000000000000000000000000000000000000000000000 DUP2 MSTORE PUSH1 0x4 ADD PUSH2 0x189 SWAP1 PUSH2 0x8E5 JUMP JUMPDEST PUSH1 0x40 MLOAD DUP1 SWAP2 SUB SWAP1 REVERT JUMPDEST PUSH0 GAS SWAP1 POP PUSH0 PUSH0 SWAP1 POP JUMPDEST DUP6 DUP6 SWAP1 POP DUP2 LT ISZERO PUSH2 0x32F JUMPI PUSH0 DUP7 DUP7 DUP4 DUP2 DUP2 LT PUSH2 0x1BA JUMPI PUSH2 0x1B9 PUSH2 0x903 JUMP JUMPDEST JUMPDEST SWAP1 POP PUSH1 0x20 MUL ADD PUSH1 0x20 DUP2 ADD SWAP1 PUSH2 0x1CF SWAP2 SWAP1 PUSH2 0x930 JUMP JUMPDEST PUSH20 0xFFFFFFFFFFFFFFFFFFFFFFFFFFFFFFFFFFFFFFFF AND DUP6 DUP6 DUP5 DUP2 DUP2 LT PUSH2 0x1F8 JUMPI PUSH2 0x1F7 PUSH2 0x903 JUMP JUMPDEST JUMPDEST SWAP1 POP PUSH1 0x20 MUL DUP2 ADD SWAP1 PUSH2 0x20A SWAP2 SWAP1 PUSH2 0x967 JUMP JUMPDEST PUSH1 0x40 MLOAD PUSH2 0x218 SWAP3 SWAP2 SWAP1 PUSH2 0xA05 JUMP JUMPDEST PUSH0 PUSH1 0x40 MLOAD DUP1 DUP4 SUB DUP2 PUSH0 DUP7 GAS CALL SWAP2 POP POP RETURNDATASIZE DUP1 PUSH0 DUP2 EQ PUSH2 0x251 JUMPI PUSH1 0x40 MLOAD SWAP2 POP PUSH1 0x1F NOT PUSH1 0x3F RETURNDATASIZE ADD AND DUP3 ADD PUSH1 0x40 MSTORE RETURNDATASIZE DUP3 MSTORE RETURNDATASIZE PUSH0 PUSH1 0x20 DUP5 ADD RETURNDATACOPY PUSH2 0x256 JUMP JUMPDEST PUSH1 0x60 SWAP2 POP JUMPDEST POP POP SWAP1 POP DUP1 PUSH2 0x29A JUMPI PUSH1 0x40 MLOAD PUSH32 0x8C379A000000000000000000000000000000000000000000000000000000000 DUP2 MSTORE PUSH1 0x4 ADD PUSH2 0x291 SWAP1 PUSH2 0xA67 JUMP JUMPDEST PUSH1 0x40 MLOAD DUP1 SWAP2 SUB SWAP1 REVERT JUMPDEST PUSH32 0xCAF938DE11C367272220BFD1D2BAA99CA46665E7BC4D85F00ADB51B90FE1FA9F DUP8 DUP8 DUP5 DUP2 DUP2 LT PUSH2 0x2CE JUMPI PUSH2 0x2CD PUSH2 0x903 JUMP JUMPDEST JUMPDEST SWAP1 POP PUSH1 0x20 MUL ADD PUSH1 0x20 DUP2 ADD SWAP1 PUSH2 0x2E3 SWAP2 SWAP1 PUSH2 0x930 JUMP JUMPDEST PUSH0 DUP8 DUP8 DUP7 DUP2 DUP2 LT PUSH2 0x2F7 JUMPI PUSH2 0x2F6 PUSH2 0x903 JUMP JUMPDEST JUMPDEST SWAP1 POP PUSH1 0x20 MUL DUP2 ADD SWAP1 PUSH2 0x309 SWAP2 SWAP1 PUSH2 0x967 JUMP JUMPDEST PUSH1 0x40 MLOAD PUSH2 0x319 SWAP5 SWAP4 SWAP3 SWAP2 SWAP1 PUSH2 0xB13 JUMP JUMPDEST PUSH1 0x40 MLOAD DUP1 SWAP2 SUB SWAP1 LOG1 POP DUP1 DUP1 PUSH1 0x1 ADD SWAP2 POP POP PUSH2 0x19B JUMP JUMPDEST POP PUSH0 GAS DUP3 PUSH2 0x33D SWAP2 SWAP1 PUSH2 0xB7E JUMP JUMPDEST SWAP1 POP PUSH32 0x275C82CA4F491F0C9B7FFA4F6E3E85613C4A0D2C4F67B64995DC68806F0586E5 DUP2 PUSH1 0x40 MLOAD PUSH2 0x36E SWAP2 SWAP1 PUSH2 0xBC0 JUMP JUMPDEST PUSH1 0x40 MLOAD DUP1 SWAP2 SUB SWAP1 LOG1 POP POP POP POP POP POP JUMP JUMPDEST PUSH0 PUSH0 SWAP1 SLOAD SWAP1 PUSH2 0x100 EXP SWAP1 DIV PUSH20 0xFFFFFFFFFFFFFFFFFFFFFFFFFFFFFFFFFFFFFFFF AND DUP2 JUMP JUMPDEST PUSH0 PUSH0 SWAP1 SLOAD SWAP1 PUSH2 0x100 EXP SWAP1 DIV PUSH20 0xFFFFFFFFFFFFFFFFFFFFFFFFFFFFFFFFFFFFFFFF AND PUSH20 0xFFFFFFFFFFFFFFFFFFFFFFFFFFFFFFFFFFFFFFFF AND CALLER PUSH20 0xFFFFFFFFFFFFFFFFFFFFFFFFFFFFFFFFFFFFFFFF AND EQ PUSH2 0x430 JUMPI PUSH1 0x40 MLOAD PUSH32 0x8C379A000000000000000000000000000000000000000000000000000000000 DUP2 MSTORE PUSH1 0x4 ADD PUSH2 0x427 SWAP1 PUSH2 0x87D JUMP JUMPDEST PUSH1 0x40 MLOAD DUP1 SWAP2 SUB SWAP1 REVERT JUMPDEST PUSH0 GAS SWAP1 POP PUSH0 DUP6 PUSH20 0xFFFFFFFFFFFFFFFFFFFFFFFFFFFFFFFFFFFFFFFF AND DUP6 DUP6 DUP6 PUSH1 0x40 MLOAD PUSH2 0x45D SWAP3 SWAP2 SWAP1 PUSH2 0xA05 JUMP JUMPDEST PUSH0 PUSH1 0x40 MLOAD DUP1 DUP4 SUB DUP2 DUP6 DUP8 GAS CALL SWAP3 POP POP POP RETURNDATASIZE DUP1 PUSH0 DUP2 EQ PUSH2 0x497 JUMPI PUSH1 0x40 MLOAD SWAP2 POP PUSH1 0x1F NOT PUSH1 0x3F RETURNDATASIZE ADD AND DUP3 ADD PUSH1 0x40 MSTORE RETURNDATASIZE DUP3 MSTORE RETURNDATASIZE PUSH0 PUSH1 0x20 DUP5 ADD RETURNDATACOPY PUSH2 0x49C JUMP JUMPDEST PUSH1 0x60 SWAP2 POP JUMPDEST POP POP SWAP1 POP DUP1 PUSH2 0x4E0 JUMPI PUSH1 0x40 MLOAD PUSH32 0x8C379A000000000000000000000000000000000000000000000000000000000 DUP2 MSTORE PUSH1 0x4 ADD PUSH2 0x4D7 SWAP1 PUSH2 0xC23 JUMP JUMPDEST PUSH1 0x40 MLOAD DUP1 SWAP2 SUB SWAP1 REVERT JUMPDEST PUSH0 GAS DUP4 PUSH2 0x4ED SWAP2 SWAP1 PUSH2 0xB7E JUMP JUMPDEST SWAP1 POP PUSH32 0x275C82CA4F491F0C9B7FFA4F6E3E85613C4A0D2C4F67B64995DC68806F0586E5 DUP2 PUSH1 0x40 MLOAD PUSH2 0x51E SWAP2 SWAP1 PUSH2 0xBC0 JUMP JUMPDEST PUSH1 0x40 MLOAD DUP1 SWAP2 SUB SWAP1 LOG1 PUSH32 0xCAF938DE11C367272220BFD1D2BAA99CA46665E7BC4D85F00ADB51B90FE1FA9F DUP8 DUP8 DUP8 DUP8 PUSH1 0x40 MLOAD PUSH2 0x55B SWAP5 SWAP4 SWAP3 SWAP2 SWAP1 PUSH2 0xC41 JUMP JUMPDEST PUSH1 0x40 MLOAD DUP1 SWAP2 SUB SWAP1 LOG1 POP POP POP POP POP POP POP JUMP JUMPDEST PUSH0 PUSH0 REVERT JUMPDEST PUSH0 PUSH0 REVERT JUMPDEST PUSH0 PUSH0 REVERT JUMPDEST PUSH0 PUSH0 REVERT JUMPDEST PUSH0 PUSH0 REVERT JUMPDEST PUSH0 PUSH0 DUP4 PUSH1 0x1F DUP5 ADD SLT PUSH2 0x595 JUMPI PUSH2 0x594 PUSH2 0x574 JUMP JUMPDEST JUMPDEST DUP3 CALLDATALOAD SWAP1 POP PUSH8 0xFFFFFFFFFFFFFFFF DUP2 GT ISZERO PUSH2 0x5B2 JUMPI PUSH2 0x5B1 PUSH2 0x578 JUMP JUMPDEST JUMPDEST PUSH1 0x20 DUP4 ADD SWAP2 POP DUP4 PUSH1 0x20 DUP3 MUL DUP4 ADD GT ISZERO PUSH2 0x5CE JUMPI PUSH2 0x5CD PUSH2 0x57C JUMP JUMPDEST JUMPDEST SWAP3 POP SWAP3 SWAP1 POP JUMP JUMPDEST PUSH0 PUSH0 DUP4 PUSH1 0x1F DUP5 ADD SLT PUSH2 0x5EA JUMPI PUSH2 0x5E9 PUSH2 0x574 JUMP JUMPDEST JUMPDEST DUP3 CALLDATALOAD SWAP1 POP PUSH8 0xFFFFFFFFFFFFFFFF DUP2 GT ISZERO PUSH2 0x607 JUMPI PUSH2 0x606 PUSH2 0x578 JUMP JUMPDEST JUMPDEST PUSH1 0x20 DUP4 ADD SWAP2 POP DUP4 PUSH1 0x20 DUP3 MUL DUP4 ADD GT ISZERO PUSH2 0x623 JUMPI PUSH2 0x622 PUSH2 0x57C JUMP JUMPDEST JUMPDEST SWAP3 POP SWAP3 SWAP1 POP JUMP JUMPDEST PUSH0 PUSH0 PUSH0 PUSH0 PUSH1 0x40 DUP6 DUP8 SUB SLT ISZERO PUSH2 0x642 JUMPI PUSH2 0x641 PUSH2 0x56C JUMP JUMPDEST JUMPDEST PUSH0 DUP6 ADD CALLDATALOAD PUSH8 0xFFFFFFFFFFFFFFFF DUP2 GT ISZERO PUSH2 0x65F JUMPI PUSH2 0x65E PUSH2 0x570 JUMP JUMPDEST JUMPDEST PUSH2 0x66B DUP8 DUP3 DUP9 ADD PUSH2 0x580 JUMP JUMPDEST SWAP5 POP SWAP5 POP POP PUSH1 0x20 DUP6 ADD CALLDATALOAD PUSH8 0xFFFFFFFFFFFFFFFF DUP2 GT ISZERO PUSH2 0x68E JUMPI PUSH2 0x68D PUSH2 0x570 JUMP JUMPDEST JUMPDEST PUSH2 0x69A DUP8 DUP3 DUP9 ADD PUSH2 0x5D5 JUMP JUMPDEST SWAP3 POP SWAP3 POP POP SWAP3 SWAP6 SWAP2 SWAP5 POP SWAP3 POP JUMP JUMPDEST PUSH0 PUSH20 0xFFFFFFFFFFFFFFFFFFFFFFFFFFFFFFFFFFFFFFFF DUP3 AND SWAP1 POP SWAP2 SWAP1 POP JUMP JUMPDEST PUSH0 PUSH2 0x6D1 DUP3 PUSH2 0x6A8 JUMP JUMPDEST SWAP1 POP SWAP2 SWAP1 POP JUMP JUMPDEST PUSH2 0x6E1 DUP2 PUSH2 0x6C7 JUMP JUMPDEST DUP3 MSTORE POP POP JUMP JUMPDEST PUSH0 PUSH1 0x20 DUP3 ADD SWAP1 POP PUSH2 0x6FA PUSH0 DUP4 ADD DUP5 PUSH2 0x6D8 JUMP JUMPDEST SWAP3 SWAP2 POP POP JUMP JUMPDEST PUSH2 0x709 DUP2 PUSH2 0x6C7 JUMP JUMPDEST DUP2 EQ PUSH2 0x713 JUMPI PUSH0 PUSH0 REVERT JUMPDEST POP JUMP JUMPDEST PUSH0 DUP2 CALLDATALOAD SWAP1 POP PUSH2 0x724 DUP2 PUSH2 0x700 JUMP JUMPDEST SWAP3 SWAP2 POP POP JUMP JUMPDEST PUSH0 DUP2 SWAP1 POP SWAP2 SWAP1 POP JUMP JUMPDEST PUSH2 0x73C DUP2 PUSH2 0x72A JUMP JUMPDEST DUP2 EQ PUSH2 0x746 JUMPI PUSH0 PUSH0 REVERT JUMPDEST POP JUMP JUMPDEST PUSH0 DUP2 CALLDATALOAD SWAP1 POP PUSH2 0x757 DUP2 PUSH2 0x733 JUMP JUMPDEST SWAP3 SWAP2 POP POP JUMP JUMPDEST PUSH0 PUSH0 DUP4 PUSH1 0x1F DUP5 ADD SLT PUSH2 0x772 JUMPI PUSH2 0x771 PUSH2 0x574 JUMP JUMPDEST JUMPDEST DUP3 CALLDATALOAD SWAP1 POP PUSH8 0xFFFFFFFFFFFFFFFF DUP2 GT ISZERO PUSH2 0x78F JUMPI PUSH2 0x78E PUSH2 0x578 JUMP JUMPDEST JUMPDEST PUSH1 0x20 DUP4 ADD SWAP2 POP DUP4 PUSH1 0x1 DUP3 MUL DUP4 ADD GT ISZERO PUSH2 0x7AB JUMPI PUSH2 0x7AA PUSH2 0x57C JUMP JUMPDEST JUMPDEST SWAP3 POP SWAP3 SWAP1 POP JUMP JUMPDEST PUSH0 PUSH0 PUSH0 PUSH0 PUSH1 0x60 DUP6 DUP8 SUB SLT ISZERO PUSH2 0x7CA JUMPI PUSH2 0x7C9 PUSH2 0x56C JUMP JUMPDEST JUMPDEST PUSH0 PUSH2 0x7D7 DUP8 DUP3 DUP9 ADD PUSH2 0x716 JUMP JUMPDEST SWAP5 POP POP PUSH1 0x20 PUSH2 0x7E8 DUP8 DUP3 DUP9 ADD PUSH2 0x749 JUMP JUMPDEST SWAP4 POP POP PUSH1 0x40 DUP6 ADD CALLDATALOAD PUSH8 0xFFFFFFFFFFFFFFFF DUP2 GT ISZERO PUSH2 0x809 JUMPI PUSH2 0x808 PUSH2 0x570 JUMP JUMPDEST JUMPDEST PUSH2 0x815 DUP8 DUP3 DUP9 ADD PUSH2 0x75D JUMP JUMPDEST SWAP3 POP SWAP3 POP POP SWAP3 SWAP6 SWAP2 SWAP5 POP SWAP3 POP JUMP JUMPDEST PUSH0 DUP3 DUP3 MSTORE PUSH1 0x20 DUP3 ADD SWAP1 POP SWAP3 SWAP2 POP POP JUMP JUMPDEST PUSH32 0x4E6F74206F776E65720000000000000000000000000000000000000000000000 PUSH0 DUP3 ADD MSTORE POP JUMP JUMPDEST PUSH0 PUSH2 0x867 PUSH1 0x9 DUP4 PUSH2 0x823 JUMP JUMPDEST SWAP2 POP PUSH2 0x872 DUP3 PUSH2 0x833 JUMP JUMPDEST PUSH1 0x20 DUP3 ADD SWAP1 POP SWAP2 SWAP1 POP JUMP JUMPDEST PUSH0 PUSH1 0x20 DUP3 ADD SWAP1 POP DUP2 DUP2 SUB PUSH0 DUP4 ADD MSTORE PUSH2 0x894 DUP2 PUSH2 0x85B JUMP JUMPDEST SWAP1 POP SWAP2 SWAP1 POP JUMP JUMPDEST PUSH32 0x4C656E677468206D69736D617463680000000000000000000000000000000000 PUSH0 DUP3 ADD MSTORE POP JUMP JUMPDEST PUSH0 PUSH2 0x8CF PUSH1 0xF DUP4 PUSH2 0x823 JUMP JUMPDEST SWAP2 POP PUSH2 0x8DA DUP3 PUSH2 0x89B JUMP JUMPDEST PUSH1 0x20 DUP3 ADD SWAP1 POP SWAP2 SWAP1 POP JUMP JUMPDEST PUSH0 PUSH1 0x20 DUP3 ADD SWAP1 POP DUP2 DUP2 SUB PUSH0 DUP4 ADD MSTORE PUSH2 0x8FC DUP2 PUSH2 0x8C3 JUMP JUMPDEST SWAP1 POP SWAP2 SWAP1 POP JUMP JUMPDEST PUSH32 0x4E487B7100000000000000000000000000000000000000000000000000000000 PUSH0 MSTORE PUSH1 0x32 PUSH1 0x4 MSTORE PUSH1 0x24 PUSH0 REVERT JUMPDEST PUSH0 PUSH1 0x20 DUP3 DUP5 SUB SLT ISZERO PUSH2 0x945 JUMPI PUSH2 0x944 PUSH2 0x56C JUMP JUMPDEST JUMPDEST PUSH0 PUSH2 0x952 DUP5 DUP3 DUP6 ADD PUSH2 0x716 JUMP JUMPDEST SWAP2 POP POP SWAP3 SWAP2 POP POP JUMP JUMPDEST PUSH0 PUSH0 REVERT JUMPDEST PUSH0 PUSH0 REVERT JUMPDEST PUSH0 PUSH0 REVERT JUMPDEST PUSH0 PUSH0 DUP4 CALLDATALOAD PUSH1 0x1 PUSH1 0x20 SUB DUP5 CALLDATASIZE SUB SUB DUP2 SLT PUSH2 0x983 JUMPI PUSH2 0x982 PUSH2 0x95B JUMP JUMPDEST JUMPDEST DUP1 DUP5 ADD SWAP3 POP DUP3 CALLDATALOAD SWAP2 POP PUSH8 0xFFFFFFFFFFFFFFFF DUP3 GT ISZERO PUSH2 0x9A5 JUMPI PUSH2 0x9A4 PUSH2 0x95F JUMP JUMPDEST JUMPDEST PUSH1 0x20 DUP4 ADD SWAP3 POP PUSH1 0x1 DUP3 MUL CALLDATASIZE SUB DUP4 SGT ISZERO PUSH2 0x9C1 JUMPI PUSH2 0x9C0 PUSH2 0x963 JUMP JUMPDEST JUMPDEST POP SWAP3 POP SWAP3 SWAP1 POP JUMP JUMPDEST PUSH0 DUP2 SWAP1 POP SWAP3 SWAP2 POP POP JUMP JUMPDEST DUP3 DUP2 DUP4 CALLDATACOPY PUSH0 DUP4 DUP4 ADD MSTORE POP POP POP JUMP JUMPDEST PUSH0 PUSH2 0x9EC DUP4 DUP6 PUSH2 0x9C9 JUMP JUMPDEST SWAP4 POP PUSH2 0x9F9 DUP4 DUP6 DUP5 PUSH2 0x9D3 JUMP JUMPDEST DUP3 DUP5 ADD SWAP1 POP SWAP4 SWAP3 POP POP POP JUMP JUMPDEST PUSH0 PUSH2 0xA11 DUP3 DUP5 DUP7 PUSH2 0x9E1 JUMP JUMPDEST SWAP2 POP DUP2 SWAP1 POP SWAP4 SWAP3 POP POP POP JUMP JUMPDEST PUSH32 0x4261746368207478206661696C65640000000000000000000000000000000000 PUSH0 DUP3 ADD MSTORE POP JUMP JUMPDEST PUSH0 PUSH2 0xA51 PUSH1 0xF DUP4 PUSH2 0x823 JUMP JUMPDEST SWAP2 POP PUSH2 0xA5C DUP3 PUSH2 0xA1D JUMP JUMPDEST PUSH1 0x20 DUP3 ADD SWAP1 POP SWAP2 SWAP1 POP JUMP JUMPDEST PUSH0 PUSH1 0x20 DUP3 ADD SWAP1 POP DUP2 DUP2 SUB PUSH0 DUP4 ADD MSTORE PUSH2 0xA7E DUP2 PUSH2 0xA45 JUMP JUMPDEST SWAP1 POP SWAP2 SWAP1 POP JUMP JUMPDEST PUSH0 DUP2 SWAP1 POP SWAP2 SWAP1 POP JUMP JUMPDEST PUSH0 DUP2 SWAP1 POP SWAP2 SWAP1 POP JUMP JUMPDEST PUSH0 PUSH2 0xAB1 PUSH2 0xAAC PUSH2 0xAA7 DUP5 PUSH2 0xA85 JUMP JUMPDEST PUSH2 0xA8E JUMP JUMPDEST PUSH2 0x72A JUMP JUMPDEST SWAP1 POP SWAP2 SWAP1 POP JUMP JUMPDEST PUSH2 0xAC1 DUP2 PUSH2 0xA97 JUMP JUMPDEST DUP3 MSTORE POP POP JUMP JUMPDEST PUSH0 DUP3 DUP3 MSTORE PUSH1 0x20 DUP3 ADD SWAP1 POP SWAP3 SWAP2 POP POP JUMP JUMPDEST PUSH0 PUSH1 0x1F NOT PUSH1 0x1F DUP4 ADD AND SWAP1 POP SWAP2 SWAP1 POP JUMP JUMPDEST PUSH0 PUSH2 0xAF2 DUP4 DUP6 PUSH2 0xAC7 JUMP JUMPDEST SWAP4 POP PUSH2 0xAFF DUP4 DUP6 DUP5 PUSH2 0x9D3 JUMP JUMPDEST PUSH2 0xB08 DUP4 PUSH2 0xAD7 JUMP JUMPDEST DUP5 ADD SWAP1 POP SWAP4 SWAP3 POP POP POP JUMP JUMPDEST PUSH0 PUSH1 0x60 DUP3 ADD SWAP1 POP PUSH2 0xB26 PUSH0 DUP4 ADD DUP8 PUSH2 0x6D8 JUMP JUMPDEST PUSH2 0xB33 PUSH1 0x20 DUP4 ADD DUP7 PUSH2 0xAB8 JUMP JUMPDEST DUP2 DUP2 SUB PUSH1 0x40 DUP4 ADD MSTORE PUSH2 0xB46 DUP2 DUP5 DUP7 PUSH2 0xAE7 JUMP JUMPDEST SWAP1 POP SWAP6 SWAP5 POP POP POP POP POP JUMP JUMPDEST PUSH32 0x4E487B7100000000000000000000000000000000000000000000000000000000 PUSH0 MSTORE PUSH1 0x11 PUSH1 0x4 MSTORE PUSH1 0x24 PUSH0 REVERT JUMPDEST PUSH0 PUSH2 0xB88 DUP3 PUSH2 0x72A JUMP JUMPDEST SWAP2 POP PUSH2 0xB93 DUP4 PUSH2 0x72A JUMP JUMPDEST SWAP3 POP DUP3 DUP3 SUB SWAP1 POP DUP2 DUP2 GT ISZERO PUSH2 0xBAB JUMPI PUSH2 0xBAA PUSH2 0xB51 JUMP JUMPDEST JUMPDEST SWAP3 SWAP2 POP POP JUMP JUMPDEST PUSH2 0xBBA DUP2 PUSH2 0x72A JUMP JUMPDEST DUP3 MSTORE POP POP JUMP JUMPDEST PUSH0 PUSH1 0x20 DUP3 ADD SWAP1 POP PUSH2 0xBD3 PUSH0 DUP4 ADD DUP5 PUSH2 0xBB1 JUMP JUMPDEST SWAP3 SWAP2 POP POP JUMP JUMPDEST PUSH32 0x457865637574696F6E206661696C656400000000000000000000000000000000 PUSH0 DUP3 ADD MSTORE POP JUMP JUMPDEST PUSH0 PUSH2 0xC0D PUSH1 0x10 DUP4 PUSH2 0x823 JUMP JUMPDEST SWAP2 POP PUSH2 0xC18 DUP3 PUSH2 0xBD9 JUMP JUMPDEST PUSH1 0x20 DUP3 ADD SWAP1 POP SWAP2 SWAP1 POP JUMP JUMPDEST PUSH0 PUSH1 0x20 DUP3 ADD SWAP1 POP DUP2 DUP2 SUB PUSH0 DUP4 ADD MSTORE PUSH2 0xC3A DUP2 PUSH2 0xC01 JUMP JUMPDEST SWAP1 POP SWAP2 SWAP1 POP JUMP JUMPDEST PUSH0 PUSH1 0x60 DUP3 ADD SWAP1 POP PUSH2 0xC54 PUSH0 DUP4 ADD DUP8 PUSH2 0x6D8 JUMP JUMPDEST PUSH2 0xC61 PUSH1 0x20 DUP4 ADD DUP7 PUSH2 0xBB1 JUMP JUMPDEST DUP2 DUP2 SUB PUSH1 0x40 DUP4 ADD MSTORE PUSH2 0xC74 DUP2 DUP5 DUP7 PUSH2 0xAE7 JUMP JUMPDEST SWAP1 POP SWAP6 SWAP5 POP POP POP POP POP JUMP INVALID LOG2 PUSH5 0x6970667358 0x22 SLT KECCAK256 POP 0x2B DUP5 0x2B LOG0 DUP4 NUMBER PUSH31 0xC5A892B65EA76AF550E529854EF8F6740A64DEEC0216998D64736F6C634300 ADDMOD 0x1E STOP CALLER "
		},
		"gasEstimates": {
			"creation": {
				"codeDepositCost": "650600",
				"executionCost": "infinite",
				"totalCost": "infinite"
			},
			"external": {
				"execute(address,uint256,bytes)": "infinite",
				"executeBatch(address[],bytes[])": "infinite",
				"owner()": "2507"
			}
		},
		"methodIdentifiers": {
			"execute(address,uint256,bytes)": "b61d27f6",
			"executeBatch(address[],bytes[])": "18dfb3c7",
			"owner()": "8da5cb5b"
		}
	},
	"abi": [
		{
			"inputs": [
				{
					"internalType": "address",
					"name": "_owner",
					"type": "address"
				}
			],
			"stateMutability": "nonpayable",
			"type": "constructor"
		},
		{
			"anonymous": false,
			"inputs": [
				{
					"indexed": false,
					"internalType": "address",
					"name": "to",
					"type": "address"
				},
				{
					"indexed": false,
					"internalType": "uint256",
					"name": "value",
					"type": "uint256"
				},
				{
					"indexed": false,
					"internalType": "bytes",
					"name": "data",
					"type": "bytes"
				}
			],
			"name": "Executed",
			"type": "event"
		},
		{
			"anonymous": false,
			"inputs": [
				{
					"indexed": false,
					"internalType": "uint256",
					"name": "gasUsed",
					"type": "uint256"
				}
			],
			"name": "GasUsed",
			"type": "event"
		},
		{
			"inputs": [
				{
					"internalType": "address",
					"name": "dest",
					"type": "address"
				},
				{
					"internalType": "uint256",
					"name": "value",
					"type": "uint256"
				},
				{
					"internalType": "bytes",
					"name": "func",
					"type": "bytes"
				}
			],
			"name": "execute",
			"outputs": [],
			"stateMutability": "nonpayable",
			"type": "function"
		},
		{
			"inputs": [
				{
					"internalType": "address[]",
					"name": "dests",
					"type": "address[]"
				},
				{
					"internalType": "bytes[]",
					"name": "funcs",
					"type": "bytes[]"
				}
			],
			"name": "executeBatch",
			"outputs": [],
			"stateMutability": "nonpayable",
			"type": "function"
		},
		{
			"inputs": [],
			"name": "owner",
			"outputs": [
				{
					"internalType": "address",
					"name": "",
					"type": "address"
				}
			],
			"stateMutability": "view",
			"type": "function"
		},
		{
			"stateMutability": "payable",
			"type": "receive"
		}
	]
}